{
  "contractName": "Taboow_CYC",
  "abi": [
    {
      "constant": true,
      "inputs": [],
      "name": "name",
      "outputs": [
        {
          "name": "",
          "type": "string"
        }
      ],
      "payable": false,
      "stateMutability": "view",
      "type": "function"
    },
    {
      "constant": true,
      "inputs": [],
      "name": "pubEnd",
      "outputs": [
        {
          "name": "",
          "type": "uint256"
        }
      ],
      "payable": false,
      "stateMutability": "view",
      "type": "function"
    },
    {
      "constant": true,
      "inputs": [],
      "name": "decimals",
      "outputs": [
        {
          "name": "",
          "type": "uint256"
        }
      ],
      "payable": false,
      "stateMutability": "view",
      "type": "function"
    },
    {
      "constant": true,
      "inputs": [],
      "name": "taboowAddr",
      "outputs": [
        {
          "name": "",
          "type": "address"
        }
      ],
      "payable": false,
      "stateMutability": "view",
      "type": "function"
    },
    {
      "constant": false,
      "inputs": [],
      "name": "renounceOwnership",
      "outputs": [],
      "payable": false,
      "stateMutability": "nonpayable",
      "type": "function"
    },
    {
      "constant": true,
      "inputs": [],
      "name": "tokenPrice",
      "outputs": [
        {
          "name": "",
          "type": "uint256"
        }
      ],
      "payable": false,
      "stateMutability": "view",
      "type": "function"
    },
    {
      "constant": true,
      "inputs": [],
      "name": "owner",
      "outputs": [
        {
          "name": "",
          "type": "address"
        }
      ],
      "payable": false,
      "stateMutability": "view",
      "type": "function"
    },
    {
      "constant": true,
      "inputs": [],
      "name": "totalSold",
      "outputs": [
        {
          "name": "",
          "type": "uint256"
        }
      ],
      "payable": false,
      "stateMutability": "view",
      "type": "function"
    },
    {
      "constant": true,
      "inputs": [
        {
          "name": "",
          "type": "address"
        }
      ],
      "name": "sold",
      "outputs": [
        {
          "name": "",
          "type": "uint256"
        }
      ],
      "payable": false,
      "stateMutability": "view",
      "type": "function"
    },
    {
      "constant": true,
      "inputs": [],
      "name": "FWDaddrETH",
      "outputs": [
        {
          "name": "",
          "type": "address"
        }
      ],
      "payable": false,
      "stateMutability": "view",
      "type": "function"
    },
    {
      "constant": true,
      "inputs": [],
      "name": "tokenUnit",
      "outputs": [
        {
          "name": "",
          "type": "uint256"
        }
      ],
      "payable": false,
      "stateMutability": "view",
      "type": "function"
    },
    {
      "constant": false,
      "inputs": [
        {
          "name": "_newOwner",
          "type": "address"
        }
      ],
      "name": "transferOwnership",
      "outputs": [],
      "payable": false,
      "stateMutability": "nonpayable",
      "type": "function"
    },
    {
      "inputs": [
        {
          "name": "addrEth",
          "type": "address"
        },
        {
          "name": "addrTaboow",
          "type": "address"
        }
      ],
      "payable": false,
      "stateMutability": "nonpayable",
      "type": "constructor"
    },
    {
      "payable": true,
      "stateMutability": "payable",
      "type": "fallback"
    },
    {
      "anonymous": false,
      "inputs": [
        {
          "indexed": true,
          "name": "previousOwner",
          "type": "address"
        }
      ],
      "name": "OwnershipRenounced",
      "type": "event"
    },
    {
      "anonymous": false,
      "inputs": [
        {
          "indexed": true,
          "name": "previousOwner",
          "type": "address"
        },
        {
          "indexed": true,
          "name": "newOwner",
          "type": "address"
        }
      ],
      "name": "OwnershipTransferred",
      "type": "event"
    },
    {
      "constant": false,
      "inputs": [
        {
          "name": "_value",
          "type": "address"
        }
      ],
      "name": "setFWDaddrETH",
      "outputs": [],
      "payable": false,
      "stateMutability": "nonpayable",
      "type": "function"
    },
    {
      "constant": false,
      "inputs": [
        {
          "name": "_value",
          "type": "address"
        }
      ],
      "name": "setTaboow",
      "outputs": [],
      "payable": false,
      "stateMutability": "nonpayable",
      "type": "function"
    },
    {
      "constant": false,
      "inputs": [
        {
          "name": "_value",
          "type": "uint256"
        }
      ],
      "name": "setPrice",
      "outputs": [],
      "payable": false,
      "stateMutability": "nonpayable",
      "type": "function"
    },
    {
      "constant": false,
      "inputs": [
        {
          "name": "_value",
          "type": "uint256"
        }
      ],
      "name": "setPubEnd",
      "outputs": [],
      "payable": false,
      "stateMutability": "nonpayable",
      "type": "function"
    },
    {
      "constant": false,
      "inputs": [],
      "name": "buy",
      "outputs": [],
      "payable": true,
      "stateMutability": "payable",
      "type": "function"
    },
    {
      "constant": false,
      "inputs": [],
      "name": "withdrawPUB",
      "outputs": [
        {
          "name": "",
          "type": "bool"
        }
      ],
      "payable": false,
      "stateMutability": "nonpayable",
      "type": "function"
    },
    {
      "constant": false,
      "inputs": [
        {
          "name": "weiValue",
          "type": "uint256"
        }
      ],
      "name": "EMGwithdraw",
      "outputs": [],
      "payable": false,
      "stateMutability": "nonpayable",
      "type": "function"
    },
    {
      "constant": true,
      "inputs": [
        {
          "name": "_addr",
          "type": "address"
        }
      ],
      "name": "isVerified",
      "outputs": [
        {
          "name": "",
          "type": "bool"
        }
      ],
      "payable": false,
      "stateMutability": "view",
      "type": "function"
    },
    {
      "constant": true,
      "inputs": [
        {
          "name": "_addr",
          "type": "address"
        }
      ],
      "name": "isReserved",
      "outputs": [
        {
          "name": "",
          "type": "uint256"
        }
      ],
      "payable": false,
      "stateMutability": "view",
      "type": "function"
    },
    {
      "constant": false,
      "inputs": [
        {
          "name": "_token",
          "type": "address"
        },
        {
          "name": "_amount",
          "type": "uint256"
        }
      ],
      "name": "sweep",
      "outputs": [],
      "payable": false,
      "stateMutability": "nonpayable",
      "type": "function"
    },
    {
      "constant": false,
      "inputs": [
        {
          "name": "_addr",
          "type": "address"
        },
        {
          "name": "_amount",
          "type": "uint256"
        }
      ],
      "name": "reserveTokens",
      "outputs": [],
      "payable": false,
      "stateMutability": "nonpayable",
      "type": "function"
    },
    {
      "constant": false,
      "inputs": [
        {
          "name": "_amount",
          "type": "uint256"
        },
        {
          "name": "_user",
          "type": "address"
        }
      ],
      "name": "tokensDelivery",
      "outputs": [],
      "payable": false,
      "stateMutability": "nonpayable",
      "type": "function"
    }
  ],
  "bytecode": "0x60806040526040805190810160405280600a81526020017f5461626f6f7720435943000000000000000000000000000000000000000000008152506001908051906020019062000051929190620001b0565b5060006002556012600655600060085530600960006101000a81548173ffffffffffffffffffffffffffffffffffffffff021916908373ffffffffffffffffffffffffffffffffffffffff160217905550600654600a0a600a55348015620000b857600080fd5b5060405160408062001f3b8339810180604052810190808051906020019092919080519060200190929190505050336000806101000a81548173ffffffffffffffffffffffffffffffffffffffff021916908373ffffffffffffffffffffffffffffffffffffffff16021790555081600360006101000a81548173ffffffffffffffffffffffffffffffffffffffff021916908373ffffffffffffffffffffffffffffffffffffffff16021790555080600460006101000a81548173ffffffffffffffffffffffffffffffffffffffff021916908373ffffffffffffffffffffffffffffffffffffffff16021790555050506200025f565b828054600181600116156101000203166002900490600052602060002090601f016020900481019282601f10620001f357805160ff191683800117855562000224565b8280016001018555821562000224579182015b828111156200022357825182559160200191906001019062000206565b5b50905062000233919062000237565b5090565b6200025c91905b80821115620002585760008160009055506001016200023e565b5090565b90565b611ccc806200026f6000396000f30060806040526004361061013e576000357c0100000000000000000000000000000000000000000000000000000000900463ffffffff16806306fdde03146101485780632926050f146101d8578063313ce567146102035780634068d5681461022e57806357c3f997146102855780636c99b0da146102dc5780636ea056a91461031f578063711619de1461036c578063715018a61461039957806378cf19e9146103b05780637ff9b596146103fd57806388e57687146104285780638da5cb5b146104755780639106d7ba146104cc57806391b7f5ed146104f7578063929a3c1814610524578063a6f2ae3a14610551578063b69dc15d1461055b578063b9209e33146105b2578063caefdbe91461060d578063e89b3ecb14610664578063e93c980d14610693578063f2fde38b146106be578063fb6005aa14610701575b610146610744565b005b34801561015457600080fd5b5061015d61093d565b6040518080602001828103825283818151815260200191508051906020019080838360005b8381101561019d578082015181840152602081019050610182565b50505050905090810190601f1680156101ca5780820380516001836020036101000a031916815260200191505b509250505060405180910390f35b3480156101e457600080fd5b506101ed6109db565b6040518082815260200191505060405180910390f35b34801561020f57600080fd5b506102186109e1565b6040518082815260200191505060405180910390f35b34801561023a57600080fd5b506102436109e7565b604051808273ffffffffffffffffffffffffffffffffffffffff1673ffffffffffffffffffffffffffffffffffffffff16815260200191505060405180910390f35b34801561029157600080fd5b506102c6600480360381019080803573ffffffffffffffffffffffffffffffffffffffff169060200190929190505050610a0d565b6040518082815260200191505060405180910390f35b3480156102e857600080fd5b5061031d600480360381019080803573ffffffffffffffffffffffffffffffffffffffff169060200190929190505050610b0e565b005b34801561032b57600080fd5b5061036a600480360381019080803573ffffffffffffffffffffffffffffffffffffffff16906020019092919080359060200190929190505050610bad565b005b34801561037857600080fd5b5061039760048036038101908080359060200190929190505050610d1c565b005b3480156103a557600080fd5b506103ae610d81565b005b3480156103bc57600080fd5b506103fb600480360381019080803573ffffffffffffffffffffffffffffffffffffffff16906020019092919080359060200190929190505050610e83565b005b34801561040957600080fd5b506104126111b4565b6040518082815260200191505060405180910390f35b34801561043457600080fd5b5061047360048036038101908080359060200190929190803573ffffffffffffffffffffffffffffffffffffffff1690602001909291905050506111ba565b005b34801561048157600080fd5b5061048a6114eb565b604051808273ffffffffffffffffffffffffffffffffffffffff1673ffffffffffffffffffffffffffffffffffffffff16815260200191505060405180910390f35b3480156104d857600080fd5b506104e1611510565b6040518082815260200191505060405180910390f35b34801561050357600080fd5b5061052260048036038101908080359060200190929190505050611516565b005b34801561053057600080fd5b5061054f6004803603810190808035906020019092919050505061157b565b005b610559610744565b005b34801561056757600080fd5b5061059c600480360381019080803573ffffffffffffffffffffffffffffffffffffffff169060200190929190505050611661565b6040518082815260200191505060405180910390f35b3480156105be57600080fd5b506105f3600480360381019080803573ffffffffffffffffffffffffffffffffffffffff169060200190929190505050611679565b604051808215151515815260200191505060405180910390f35b34801561061957600080fd5b5061062261177a565b604051808273ffffffffffffffffffffffffffffffffffffffff1673ffffffffffffffffffffffffffffffffffffffff16815260200191505060405180910390f35b34801561067057600080fd5b506106796117a0565b604051808215151515815260200191505060405180910390f35b34801561069f57600080fd5b506106a86119a2565b6040518082815260200191505060405180910390f35b3480156106ca57600080fd5b506106ff600480360381019080803573ffffffffffffffffffffffffffffffffffffffff1690602001909291905050506119a8565b005b34801561070d57600080fd5b50610742600480360381019080803573ffffffffffffffffffffffffffffffffffffffff169060200190929190505050611a0f565b005b60006008544210151561075657600080fd5b60003411151561076557600080fd5b343373ffffffffffffffffffffffffffffffffffffffff163101341115151561078d57600080fd5b60011515600460009054906101000a900473ffffffffffffffffffffffffffffffffffffffff1673ffffffffffffffffffffffffffffffffffffffff16630db065f4336040518263ffffffff167c0100000000000000000000000000000000000000000000000000000000028152600401808273ffffffffffffffffffffffffffffffffffffffff1673ffffffffffffffffffffffffffffffffffffffff168152602001915050602060405180830381600087803b15801561084e57600080fd5b505af1158015610862573d6000803e3d6000fd5b505050506040513d602081101561087857600080fd5b8101908080519060200190929190505050151514151561089757600080fd5b600254600a5434028115156108a857fe5b0490506108b53382611aae565b506108cb34600554611b8a90919063ffffffff16565b600581905550600360009054906101000a900473ffffffffffffffffffffffffffffffffffffffff1673ffffffffffffffffffffffffffffffffffffffff166108fc349081150290604051600060405180830381858888f19350505050158015610939573d6000803e3d6000fd5b5050565b60018054600181600116156101000203166002900480601f0160208091040260200160405190810160405280929190818152602001828054600181600116156101000203166002900480156109d35780601f106109a8576101008083540402835291602001916109d3565b820191906000526020600020905b8154815290600101906020018083116109b657829003601f168201915b505050505081565b60085481565b60065481565b600460009054906101000a900473ffffffffffffffffffffffffffffffffffffffff1681565b6000600460009054906101000a900473ffffffffffffffffffffffffffffffffffffffff1673ffffffffffffffffffffffffffffffffffffffff1663e75179a4836040518263ffffffff167c0100000000000000000000000000000000000000000000000000000000028152600401808273ffffffffffffffffffffffffffffffffffffffff1673ffffffffffffffffffffffffffffffffffffffff168152602001915050602060405180830381600087803b158015610acc57600080fd5b505af1158015610ae0573d6000803e3d6000fd5b505050506040513d6020811015610af657600080fd5b81019080805190602001909291905050509050919050565b6000809054906101000a900473ffffffffffffffffffffffffffffffffffffffff1673ffffffffffffffffffffffffffffffffffffffff163373ffffffffffffffffffffffffffffffffffffffff16141515610b6957600080fd5b80600360006101000a81548173ffffffffffffffffffffffffffffffffffffffff021916908373ffffffffffffffffffffffffffffffffffffffff16021790555050565b60008060009054906101000a900473ffffffffffffffffffffffffffffffffffffffff1673ffffffffffffffffffffffffffffffffffffffff163373ffffffffffffffffffffffffffffffffffffffff16141515610c0a57600080fd5b8290508073ffffffffffffffffffffffffffffffffffffffff1663bec3fa176000809054906101000a900473ffffffffffffffffffffffffffffffffffffffff16846040518363ffffffff167c0100000000000000000000000000000000000000000000000000000000028152600401808373ffffffffffffffffffffffffffffffffffffffff1673ffffffffffffffffffffffffffffffffffffffff16815260200182815260200192505050602060405180830381600087803b158015610cd157600080fd5b505af1158015610ce5573d6000803e3d6000fd5b505050506040513d6020811015610cfb57600080fd5b81019080805190602001909291905050501515610d1757600080fd5b505050565b6000809054906101000a900473ffffffffffffffffffffffffffffffffffffffff1673ffffffffffffffffffffffffffffffffffffffff163373ffffffffffffffffffffffffffffffffffffffff16141515610d7757600080fd5b8060088190555050565b6000809054906101000a900473ffffffffffffffffffffffffffffffffffffffff1673ffffffffffffffffffffffffffffffffffffffff163373ffffffffffffffffffffffffffffffffffffffff16141515610ddc57600080fd5b6000809054906101000a900473ffffffffffffffffffffffffffffffffffffffff1673ffffffffffffffffffffffffffffffffffffffff167ff8df31144d9c2f0f6b59d69b8b98abd5459d07f2742c4df920b25aae33c6482060405160405180910390a260008060006101000a81548173ffffffffffffffffffffffffffffffffffffffff021916908373ffffffffffffffffffffffffffffffffffffffff160217905550565b60011515600460009054906101000a900473ffffffffffffffffffffffffffffffffffffffff1673ffffffffffffffffffffffffffffffffffffffff16630db065f4336040518263ffffffff167c0100000000000000000000000000000000000000000000000000000000028152600401808273ffffffffffffffffffffffffffffffffffffffff1673ffffffffffffffffffffffffffffffffffffffff168152602001915050602060405180830381600087803b158015610f4457600080fd5b505af1158015610f58573d6000803e3d6000fd5b505050506040513d6020811015610f6e57600080fd5b81019080805190602001909291905050501515141515610f8d57600080fd5b60011515600460009054906101000a900473ffffffffffffffffffffffffffffffffffffffff1673ffffffffffffffffffffffffffffffffffffffff16630db065f4846040518263ffffffff167c0100000000000000000000000000000000000000000000000000000000028152600401808273ffffffffffffffffffffffffffffffffffffffff1673ffffffffffffffffffffffffffffffffffffffff168152602001915050602060405180830381600087803b15801561104e57600080fd5b505af1158015611062573d6000803e3d6000fd5b505050506040513d602081101561107857600080fd5b8101908080519060200190929190505050151514151561109757600080fd5b600460009054906101000a900473ffffffffffffffffffffffffffffffffffffffff1673ffffffffffffffffffffffffffffffffffffffff1660405180807f72657365727665546f6b656e7328616464726573732c75696e74323536290000815250601e01905060405180910390207c0100000000000000000000000000000000000000000000000000000000900483836040518363ffffffff167c0100000000000000000000000000000000000000000000000000000000028152600401808373ffffffffffffffffffffffffffffffffffffffff1673ffffffffffffffffffffffffffffffffffffffff168152602001828152602001925050506000604051808303816000875af19250505015156111b057600080fd5b5050565b60025481565b60011515600460009054906101000a900473ffffffffffffffffffffffffffffffffffffffff1673ffffffffffffffffffffffffffffffffffffffff16630db065f4336040518263ffffffff167c0100000000000000000000000000000000000000000000000000000000028152600401808273ffffffffffffffffffffffffffffffffffffffff1673ffffffffffffffffffffffffffffffffffffffff168152602001915050602060405180830381600087803b15801561127b57600080fd5b505af115801561128f573d6000803e3d6000fd5b505050506040513d60208110156112a557600080fd5b810190808051906020019092919050505015151415156112c457600080fd5b60011515600460009054906101000a900473ffffffffffffffffffffffffffffffffffffffff1673ffffffffffffffffffffffffffffffffffffffff16630db065f4836040518263ffffffff167c0100000000000000000000000000000000000000000000000000000000028152600401808273ffffffffffffffffffffffffffffffffffffffff1673ffffffffffffffffffffffffffffffffffffffff168152602001915050602060405180830381600087803b15801561138557600080fd5b505af1158015611399573d6000803e3d6000fd5b505050506040513d60208110156113af57600080fd5b810190808051906020019092919050505015151415156113ce57600080fd5b600460009054906101000a900473ffffffffffffffffffffffffffffffffffffffff1673ffffffffffffffffffffffffffffffffffffffff1660405180807f746f6b656e7344656c69766572792875696e743235362c616464726573732900815250601f01905060405180910390207c0100000000000000000000000000000000000000000000000000000000900483836040518363ffffffff167c0100000000000000000000000000000000000000000000000000000000028152600401808381526020018273ffffffffffffffffffffffffffffffffffffffff1673ffffffffffffffffffffffffffffffffffffffff168152602001925050506000604051808303816000875af19250505015156114e757600080fd5b5050565b6000809054906101000a900473ffffffffffffffffffffffffffffffffffffffff1681565b60055481565b6000809054906101000a900473ffffffffffffffffffffffffffffffffffffffff1673ffffffffffffffffffffffffffffffffffffffff163373ffffffffffffffffffffffffffffffffffffffff1614151561157157600080fd5b8060028190555050565b6000809054906101000a900473ffffffffffffffffffffffffffffffffffffffff1673ffffffffffffffffffffffffffffffffffffffff163373ffffffffffffffffffffffffffffffffffffffff161415156115d657600080fd5b600854421115156115e657600080fd5b6000811115156115f557600080fd5b600360009054906101000a900473ffffffffffffffffffffffffffffffffffffffff1673ffffffffffffffffffffffffffffffffffffffff166108fc829081150290604051600060405180830381858888f1935050505015801561165d573d6000803e3d6000fd5b5050565b60076020528060005260406000206000915090505481565b6000600460009054906101000a900473ffffffffffffffffffffffffffffffffffffffff1673ffffffffffffffffffffffffffffffffffffffff16630db065f4836040518263ffffffff167c0100000000000000000000000000000000000000000000000000000000028152600401808273ffffffffffffffffffffffffffffffffffffffff1673ffffffffffffffffffffffffffffffffffffffff168152602001915050602060405180830381600087803b15801561173857600080fd5b505af115801561174c573d6000803e3d6000fd5b505050506040513d602081101561176257600080fd5b81019080805190602001909291905050509050919050565b600360009054906101000a900473ffffffffffffffffffffffffffffffffffffffff1681565b6000600854421115156117b257600080fd5b6000600760003373ffffffffffffffffffffffffffffffffffffffff1673ffffffffffffffffffffffffffffffffffffffff1681526020019081526020016000205411151561180057600080fd5b600460009054906101000a900473ffffffffffffffffffffffffffffffffffffffff1673ffffffffffffffffffffffffffffffffffffffff1660405180807f7472616e73666572546f6b656e7328616464726573732c75696e743235362900815250601f01905060405180910390207c0100000000000000000000000000000000000000000000000000000000900433600760003373ffffffffffffffffffffffffffffffffffffffff1673ffffffffffffffffffffffffffffffffffffffff168152602001908152602001600020546040518363ffffffff167c0100000000000000000000000000000000000000000000000000000000028152600401808373ffffffffffffffffffffffffffffffffffffffff1673ffffffffffffffffffffffffffffffffffffffff168152602001828152602001925050506000604051808303816000875af192505050151561195857600080fd5b600760003373ffffffffffffffffffffffffffffffffffffffff1673ffffffffffffffffffffffffffffffffffffffff168152602001908152602001600020600090556001905090565b600a5481565b6000809054906101000a900473ffffffffffffffffffffffffffffffffffffffff1673ffffffffffffffffffffffffffffffffffffffff163373ffffffffffffffffffffffffffffffffffffffff16141515611a0357600080fd5b611a0c81611ba6565b50565b6000809054906101000a900473ffffffffffffffffffffffffffffffffffffffff1673ffffffffffffffffffffffffffffffffffffffff163373ffffffffffffffffffffffffffffffffffffffff16141515611a6a57600080fd5b80600460006101000a81548173ffffffffffffffffffffffffffffffffffffffff021916908373ffffffffffffffffffffffffffffffffffffffff16021790555050565b60008073ffffffffffffffffffffffffffffffffffffffff168373ffffffffffffffffffffffffffffffffffffffff1614151515611aeb57600080fd5b611b3d82600760008673ffffffffffffffffffffffffffffffffffffffff1673ffffffffffffffffffffffffffffffffffffffff16815260200190815260200160002054611b8a90919063ffffffff16565b600760008573ffffffffffffffffffffffffffffffffffffffff1673ffffffffffffffffffffffffffffffffffffffff168152602001908152602001600020819055506001905092915050565b60008183019050828110151515611b9d57fe5b80905092915050565b600073ffffffffffffffffffffffffffffffffffffffff168173ffffffffffffffffffffffffffffffffffffffff1614151515611be257600080fd5b8073ffffffffffffffffffffffffffffffffffffffff166000809054906101000a900473ffffffffffffffffffffffffffffffffffffffff1673ffffffffffffffffffffffffffffffffffffffff167f8be0079c531659141344cd1fd0a4f28419497f9722a3daafe3b4186f6b6457e060405160405180910390a3806000806101000a81548173ffffffffffffffffffffffffffffffffffffffff021916908373ffffffffffffffffffffffffffffffffffffffff160217905550505600a165627a7a723058201734745a45f185420ffa7bdbb27ed30beeca481ee45ecbceb058c2038cd3c4780029",
  "source": "pragma solidity 0.4.24;\n\n/*\n    Copyright 2018, Vicent Nos & Mireia Puig\n\n    This program is free software: you can redistribute it and/or modify\n    it under the terms of the GNU General Public License as published by\n    the Free Software Foundation, either version 3 of the License, or\n    (at your option) any later version.\n\n    This program is distributed in the hope that it will be useful,\n    but WITHOUT ANY WARRANTY; without even the implied warranty of\n    MERCHANTABILITY or FITNESS FOR A PARTICULAR PURPOSE.  See the\n    GNU General Public License for more details.\n\n    You should have received a copy of the GNU General Public License\n    along with this program.  If not, see <http://www.gnu.org/licenses/>.\n\n*/\n\n\n /**\n  * @title OpenZeppelin SafeMath\n  * @dev Math operations with safety checks that throw on error\n  */\n  library SafeMath {\n\n   /**\n   * @dev Multiplies two numbers, throws on overflow.\n   */\n   function mul(uint256 a, uint256 b) internal pure returns (uint256 c) {\n     // Gas optimization: this is cheaper than asserting 'a' not being zero, but the\n     // benefit is lost if 'b' is also tested.\n     // See: https://github.com/OpenZeppelin/openzeppelin-solidity/pull/522\n     if (a == 0) {\n       return 0;\n     }\n\n     c = a * b;\n     assert(c / a == b);\n     return c;\n   }\n\n   /**\n   * @dev Integer division of two numbers, truncating the quotient.\n   */\n   function div(uint256 a, uint256 b) internal pure returns (uint256) {\n     // assert(b > 0); // Solidity automatically throws when dividing by 0\n     // uint256 c = a / b;\n     // assert(a == b * c + a % b); // There is no case in which this doesn't hold\n     return a / b;\n   }\n\n   /**\n   * @dev Subtracts two numbers, throws on overflow (i.e. if subtrahend is greater than minuend).\n   */\n   function sub(uint256 a, uint256 b) internal pure returns (uint256) {\n     assert(b <= a);\n     return a - b;\n   }\n\n   /**\n   * @dev Adds two numbers, throws on overflow.\n   */\n   function add(uint256 a, uint256 b) internal pure returns (uint256 c) {\n     c = a + b;\n     assert(c >= a);\n     return c;\n   }\n }\n\n\n /**\n  * @title OpenZeppelin Ownable\n  * @dev The Ownable contract has an owner address, and provides basic authorization control\n  * functions, this simplifies the implementation of \"user permissions\".\n  */\n contract Ownable {\n   address public owner;\n\n   event OwnershipRenounced(address indexed previousOwner);\n   event OwnershipTransferred(\n     address indexed previousOwner,\n     address indexed newOwner\n   );\n\n   /**\n    * @dev The Ownable constructor sets the original `owner` of the contract to the sender\n    * account.\n    */\n   constructor() public {\n     owner = msg.sender;\n   }\n\n   /**\n    * @dev Throws if called by any account other than the owner.\n    */\n   modifier onlyOwner() {\n     require(msg.sender == owner);\n     _;\n   }\n\n   /**\n    * @dev Allows the current owner to relinquish control of the contract.\n    * @notice Renouncing to ownership will leave the contract without an owner.\n    * It will not be possible to call the functions with the `onlyOwner`\n    * modifier anymore.\n    */\n   function renounceOwnership() public onlyOwner {\n     emit OwnershipRenounced(owner);\n     owner = address(0);\n   }\n\n   /**\n    * @dev Allows the current owner to transfer control of the contract to a newOwner.\n    * @param _newOwner The address to transfer ownership to.\n    */\n   function transferOwnership(address _newOwner) public onlyOwner {\n     _transferOwnership(_newOwner);\n   }\n\n   /**\n    * @dev Transfers control of the contract to a newOwner.\n    * @param _newOwner The address to transfer ownership to.\n    */\n   function _transferOwnership(address _newOwner) internal {\n     require(_newOwner != address(0));\n     emit OwnershipTransferred(owner, _newOwner);\n     owner = _newOwner;\n   }\n }\n\n\n//////////////////////////////////////////////////////////////\n//                                                          //\n//                    TaboowERC20 CYC                       //\n//                   https://taboow.org                     //\n//                                                          //\n//////////////////////////////////////////////////////////////\n\ncontract Token {\n    function transferTokens(address to, uint256 value) public returns (bool);\n    function transfer(address to, uint256 value) public returns (bool);\n    function verified(address _addr) public pure returns (bool _status);\n    function reserveTokens (address _addr, uint256 _amount) public;\n    function reserve(address _addr) public pure returns (uint256 _amount);\n    function tokensDelivery (uint256 _amount, address _user) public;\n\n}\n\ncontract Taboow_CYC is Ownable {\n\n    using SafeMath for uint256;\n\n    string public name = \"Taboow CYC\";      // Extended name of this contract\n    uint256 public tokenPrice = 0;        // Set the fixed ESS token price\n    address public FWDaddrETH;            // Set the address to forward the received ETH to\n    address public taboowAddr;            // Set the ESSENTIA Genesis contract address\n    uint256 public totalSold;             // Keep track of the contributions total\n    uint256 public decimals = 18;         // The decimals to consider\n\n    mapping (address => uint256) public sold;       // Map the ESS token allcations\n\n    uint256 public pubEnd = 0;                      // Set the unixtime END for the public engagement\n    address contractAddr = this;                      // Better way to point to this from this\n\n    // Constant to simplify the conversion of token amounts into integer form\n    uint256 public tokenUnit = uint256(10)**decimals;\n\n    /* Initializes contract with initial supply tokens to the creator of the contract */\n    constructor(\n            address addrEth,\n            address addrTaboow\n\n        ) public {\n          FWDaddrETH = addrEth;\n          taboowAddr = addrTaboow;\n    }\n\n    function () public payable {\n      buy();  // Allow to buy tokens sending ETH directly to the contract, fallback\n    }\n\n    function setFWDaddrETH(address _value) public onlyOwner {\n      FWDaddrETH = _value;     // Set the forward address default toETHaddr\n\n    }\n\n\n    function setTaboow(address _value) public onlyOwner {\n      taboowAddr = _value;     // Set the ERC20 Taboow contract address default taboowAddr\n\n    }\n\n    function setPrice(uint256 _value) public onlyOwner {\n      tokenPrice = _value;     // Set the token price default 0\n\n    }\n\n    function setPubEnd(uint256 _value) public onlyOwner {\n      pubEnd = _value;         // Set the END of the public engagement unixtime default 0\n\n    }\n\n    function buy() public payable {\n\n        require(block.timestamp < pubEnd);          // Require the current unixtime to be lower than the END unixtime\n        require(msg.value > 0);                     // Require the sender to send an ETH tx higher than 0\n        require(msg.value <= msg.sender.balance + msg.value);   // Require the sender to have sufficient ETH balance for the tx\n\n        require(Token(taboowAddr).verified(msg.sender) == true);\n\n        // Calculate the amount of tokens per contribution\n        uint256 tokenAmount = (msg.value * tokenUnit) / tokenPrice;\n\n        // Requiring sufficient token balance on this contract to accept the tx\n\n        transferBuy(msg.sender, tokenAmount);       // Instruct the accounting function\n        totalSold = totalSold.add(msg.value);       // Account for the total contributed/sold\n        FWDaddrETH.transfer(msg.value);             // Forward the ETH received to the external address\n\n    }\n\n    function withdrawPUB() public returns(bool) {\n\n        require(block.timestamp > pubEnd);          // Require the PE to be over - actual time higher than end unixtime\n        require(sold[msg.sender] > 0);              // Require the ESS token balance to be sent to be higher than 0\n\n        // Send ESS tokens to the contributors proportionally to their contribution/s\n        if(!taboowAddr.call(bytes4(keccak256(\"transferTokens(address,uint256)\")), msg.sender, sold[msg.sender])){revert();}\n\n        delete sold[msg.sender];\n        return true;\n\n    }\n\n    function transferBuy(address _to, uint256 _value) internal returns (bool) {\n\n        require(_to != address(0));                 // Require the destination address being non-zero\n\n        sold[_to] = sold[_to].add(_value);            // Account for multiple txs from the same address\n\n        return true;\n\n    }\n\n    function EMGwithdraw(uint256 weiValue) external onlyOwner {\n        require(block.timestamp > pubEnd);          // Require the public engagement to be over\n        require(weiValue > 0);                      // Require a non-zero value\n\n        FWDaddrETH.transfer(weiValue);              // Transfer to the external ETH forward address\n    }\n\n    function isVerified (address _addr) public view returns (bool) {\n      return Token(taboowAddr).verified(_addr);\n    }\n\n    function isReserved (address _addr) public view returns (uint256) {\n      return Token(taboowAddr).reserve(_addr);\n    }\n\n    function sweep(address _token, uint256 _amount) public onlyOwner {\n        Token token = Token(_token);\n\n        if(!token.transferTokens(owner, _amount)) {\n            revert();\n        }\n    }\n\n    function reserveTokens (address _addr, uint256 _amount) public {\n        require(Token(taboowAddr).verified(msg.sender) == true);\n        require(Token(taboowAddr).verified(_addr) == true);\n\n        if(!taboowAddr.call(bytes4(keccak256(\"reserveTokens(address,uint256)\")), _addr, _amount)){revert();}\n    }\n\n    function tokensDelivery (uint256 _amount, address _user) public {\n        require(Token(taboowAddr).verified(msg.sender) == true);\n        require(Token(taboowAddr).verified(_user) == true);\n\n        if(!taboowAddr.call(bytes4(keccak256(\"tokensDelivery(uint256,address)\")), _amount, _user)){revert();}\n    }\n\n}\n",
  "sourcePath": "/home/admin01/Escritorio/Taboow/tests/contracts/Taboow_CYC.sol",
  "compiler": {
    "name": "solc",
    "version": "0.4.24+commit.e67f0147.Emscripten.clang"
  },
  "schemaVersion": "2.0.0",
  "updatedAt": "2018-07-13T22:41:44.932Z"
}